{
  "_format": "hh-sol-artifact-1",
  "contractName": "RbccPresale",
  "sourceName": "contracts/RbccPresale.sol",
  "abi": [
    {
      "inputs": [
        {
          "internalType": "address",
          "name": "usdt",
          "type": "address"
        },
        {
          "internalType": "address",
          "name": "token",
          "type": "address"
        }
      ],
      "stateMutability": "nonpayable",
      "type": "constructor"
    },
    {
      "inputs": [
        {
          "internalType": "address",
          "name": "target",
          "type": "address"
        }
      ],
      "name": "AddressEmptyCode",
      "type": "error"
    },
    {
      "inputs": [
        {
          "internalType": "address",
          "name": "account",
          "type": "address"
        }
      ],
      "name": "AddressInsufficientBalance",
      "type": "error"
    },
    {
      "inputs": [],
      "name": "FailedInnerCall",
      "type": "error"
    },
    {
      "inputs": [
        {
          "internalType": "address",
          "name": "token",
          "type": "address"
        }
      ],
      "name": "SafeERC20FailedOperation",
      "type": "error"
    },
    {
      "anonymous": false,
      "inputs": [
        {
          "indexed": false,
          "internalType": "uint256",
          "name": "bnbAmount",
          "type": "uint256"
        },
        {
          "indexed": false,
          "internalType": "uint256",
          "name": "usdtAmount",
          "type": "uint256"
        },
        {
          "indexed": false,
          "internalType": "uint256",
          "name": "price",
          "type": "uint256"
        },
        {
          "indexed": false,
          "internalType": "uint256",
          "name": "rbccAmount",
          "type": "uint256"
        }
      ],
      "name": "SoldRbcc",
      "type": "event"
    },
    {
      "anonymous": false,
      "inputs": [],
      "name": "StateChange",
      "type": "event"
    },
    {
      "inputs": [],
      "name": "_TotalClaimed",
      "outputs": [
        {
          "internalType": "uint256",
          "name": "",
          "type": "uint256"
        }
      ],
      "stateMutability": "view",
      "type": "function"
    },
    {
      "inputs": [
        {
          "internalType": "uint256",
          "name": "_usdtAmount",
          "type": "uint256"
        }
      ],
      "name": "buyTokensWithUSDT",
      "outputs": [],
      "stateMutability": "nonpayable",
      "type": "function"
    },
    {
      "inputs": [],
      "name": "buyWithBNB",
      "outputs": [],
      "stateMutability": "payable",
      "type": "function"
    },
    {
      "inputs": [],
      "name": "claimRbcc",
      "outputs": [],
      "stateMutability": "nonpayable",
      "type": "function"
    },
    {
      "inputs": [
        {
          "internalType": "address",
          "name": "addr",
          "type": "address"
        }
      ],
      "name": "getAddressBought",
      "outputs": [
        {
          "internalType": "uint256",
          "name": "",
          "type": "uint256"
        }
      ],
      "stateMutability": "view",
      "type": "function"
    },
    {
      "inputs": [
        {
          "internalType": "address",
          "name": "addr",
          "type": "address"
        }
      ],
      "name": "getAddressInvestmentBNB",
      "outputs": [
        {
          "internalType": "uint256",
          "name": "",
          "type": "uint256"
        }
      ],
      "stateMutability": "view",
      "type": "function"
    },
    {
      "inputs": [
        {
          "internalType": "address",
          "name": "addr",
          "type": "address"
        }
      ],
      "name": "getAddressInvestmentUSDT",
      "outputs": [
        {
          "internalType": "uint256",
          "name": "",
          "type": "uint256"
        }
      ],
      "stateMutability": "view",
      "type": "function"
    },
    {
      "inputs": [],
      "name": "getBnbPrice",
      "outputs": [
        {
          "internalType": "uint256",
          "name": "",
          "type": "uint256"
        }
      ],
      "stateMutability": "view",
      "type": "function"
    },
    {
      "inputs": [],
      "name": "getMaxPerWallet",
      "outputs": [
        {
          "internalType": "uint256",
          "name": "",
          "type": "uint256"
        }
      ],
      "stateMutability": "view",
      "type": "function"
    },
    {
      "inputs": [],
      "name": "getMinPerWallet",
      "outputs": [
        {
          "internalType": "uint256",
          "name": "",
          "type": "uint256"
        }
      ],
      "stateMutability": "view",
      "type": "function"
    },
    {
      "inputs": [],
      "name": "getRemainingTime",
      "outputs": [
        {
          "internalType": "uint256",
          "name": "",
          "type": "uint256"
        }
      ],
      "stateMutability": "view",
      "type": "function"
    },
    {
      "inputs": [],
      "name": "getTotalBNB",
      "outputs": [
        {
          "internalType": "uint256",
          "name": "",
          "type": "uint256"
        }
      ],
      "stateMutability": "view",
      "type": "function"
    },
    {
      "inputs": [],
      "name": "getTotalSold",
      "outputs": [
        {
          "internalType": "uint256",
          "name": "",
          "type": "uint256"
        }
      ],
      "stateMutability": "view",
      "type": "function"
    },
    {
      "inputs": [],
      "name": "getTotalUSDT",
      "outputs": [
        {
          "internalType": "uint256",
          "name": "",
          "type": "uint256"
        }
      ],
      "stateMutability": "view",
      "type": "function"
    },
    {
      "inputs": [],
      "name": "getTotalValue",
      "outputs": [
        {
          "internalType": "uint256",
          "name": "",
          "type": "uint256"
        }
      ],
      "stateMutability": "view",
      "type": "function"
    },
    {
      "inputs": [],
      "name": "getpricePerToken",
      "outputs": [
        {
          "internalType": "uint256",
          "name": "",
          "type": "uint256"
        }
      ],
      "stateMutability": "view",
      "type": "function"
    },
    {
      "inputs": [
        {
          "internalType": "uint256",
          "name": "price",
          "type": "uint256"
        }
      ],
      "name": "setBnbPrice",
      "outputs": [],
      "stateMutability": "nonpayable",
      "type": "function"
    },
    {
      "inputs": [
        {
          "internalType": "uint256",
          "name": "startTime",
          "type": "uint256"
        },
        {
          "internalType": "uint256",
          "name": "endTime",
          "type": "uint256"
        }
      ],
      "name": "setTime",
      "outputs": [],
      "stateMutability": "nonpayable",
      "type": "function"
    },
    {
      "inputs": [],
      "name": "withdrawBNB",
      "outputs": [],
      "stateMutability": "nonpayable",
      "type": "function"
    },
    {
      "inputs": [
        {
          "internalType": "uint256",
          "name": "_amount",
          "type": "uint256"
        }
      ],
      "name": "withdrawRemainingRBCC",
      "outputs": [],
      "stateMutability": "nonpayable",
      "type": "function"
    },
    {
      "inputs": [],
      "name": "withdrawUSDT",
      "outputs": [],
      "stateMutability": "nonpayable",
      "type": "function"
    }
  ],
  "bytecode": "0x60806040523480156200001157600080fd5b5060405162001d1538038062001d15833981016040819052620000349162000166565b33620000865760405162461bcd60e51b815260206004820152601c60248201527f4465706c6f792066726f6d20746865207a65726f206164647265737300000000604482015260640160405180910390fd5b600280546001600160a01b038085166001600160a01b03199283161790925560018054928416928216929092179091556000805490911633179055620000d2620f42406102586200019e565b600655636659bbc0600755636659e14060085561019060095562000103670de0b6b3a7640000633b9aca006200019e565b600a5562000117620f42406127106200019e565b600b556200012a620f424060326200019e565b600c5550506000600f8190556010819055600d819055600e55620001ca565b80516001600160a01b03811681146200016157600080fd5b919050565b600080604083850312156200017a57600080fd5b620001858362000149565b9150620001956020840162000149565b90509250929050565b8082028115828204841417620001c457634e487b7160e01b600052601160045260246000fd5b92915050565b611b3b80620001da6000396000f3fe60806040526004361061016a5760003560e01c80639d7b8e68116100cb578063e2f8db751161007f578063efb98bcf11610059578063efb98bcf146103a3578063efd6684c146103b8578063fb730a7d146103cd57600080fd5b8063e2f8db7514610335578063e7be28571461034a578063e7c158311461036057600080fd5b8063bcff32eb116100b0578063bcff32eb146102eb578063caa648b41461030b578063d1f2ed441461032057600080fd5b80639d7b8e68146102b6578063a0355eca146102cb57600080fd5b8063362e496b116101225780635ef8086f116101075780635ef8086f1461023e5780636bbc42911461025e57806389f6fcd51461027357600080fd5b8063362e496b146102145780635a6ca75b1461022957600080fd5b80630df1d7d0116101535780630df1d7d0146101b45780631d111d13146101f757806320f1fc611461020c57600080fd5b8063050dc4361461016f57806308760b0d14610191575b600080fd5b34801561017b57600080fd5b5061018f61018a366004611983565b6103e2565b005b34801561019d57600080fd5b506006545b60405190815260200160405180910390f35b3480156101c057600080fd5b506101a26101cf36600461199c565b73ffffffffffffffffffffffffffffffffffffffff1660009081526003602052604090205490565b34801561020357600080fd5b5061018f61078c565b61018f610846565b34801561022057600080fd5b5061018f610a88565b34801561023557600080fd5b50600d546101a2565b34801561024a57600080fd5b5061018f610259366004611983565b610bd6565b34801561026a57600080fd5b50600b546101a2565b34801561027f57600080fd5b506101a261028e36600461199c565b73ffffffffffffffffffffffffffffffffffffffff1660009081526004602052604090205490565b3480156102c257600080fd5b506101a2610df7565b3480156102d757600080fd5b5061018f6102e63660046119d2565b610e14565b3480156102f757600080fd5b5061018f610306366004611983565b610ec6565b34801561031757600080fd5b50600a546101a2565b34801561032c57600080fd5b5061018f610f80565b34801561034157600080fd5b50600c546101a2565b34801561035657600080fd5b506101a260105481565b34801561036c57600080fd5b506101a261037b36600461199c565b73ffffffffffffffffffffffffffffffffffffffff1660009081526005602052604090205490565b3480156103af57600080fd5b506101a26112d4565b3480156103c457600080fd5b506009546101a2565b3480156103d957600080fd5b50600e546101a2565b60005473ffffffffffffffffffffffffffffffffffffffff16331461048e576040517f08c379a000000000000000000000000000000000000000000000000000000000815260206004820152602160248201527f4f6e6c7920746865206f776e65722063616e20646f207468697320616374696f60448201527f6e0000000000000000000000000000000000000000000000000000000000000060648201526084015b60405180910390fd5b6001546040517f70a08231000000000000000000000000000000000000000000000000000000008152306004820152829173ffffffffffffffffffffffffffffffffffffffff16906370a0823190602401602060405180830381865afa1580156104fc573d6000803e3d6000fd5b505050506040513d601f19601f8201168201806040525081019061052091906119f4565b10156105ae576040517f08c379a000000000000000000000000000000000000000000000000000000000815260206004820152602c60248201527f5242434320616d6f756e742061736b6564206578636565642074686520636f6e60448201527f747261637420616d6f756e7400000000000000000000000000000000000000006064820152608401610485565b6000601054600f546105c09190611a3c565b90506105cc8183611a4f565b6001546040517f70a0823100000000000000000000000000000000000000000000000000000000815230600482015273ffffffffffffffffffffffffffffffffffffffff909116906370a0823190602401602060405180830381865afa15801561063a573d6000803e3d6000fd5b505050506040513d601f19601f8201168201806040525081019061065e91906119f4565b10156106ec576040517f08c379a000000000000000000000000000000000000000000000000000000000815260206004820152602d60248201527f5242434320616d6f756e742061736b6564206578636565642074686520616d6f60448201527f756e7420666f72207573657273000000000000000000000000000000000000006064820152608401610485565b6001546040517fa9059cbb0000000000000000000000000000000000000000000000000000000081523360048201526024810184905273ffffffffffffffffffffffffffffffffffffffff9091169063a9059cbb906044016020604051808303816000875af1158015610763573d6000803e3d6000fd5b505050506040513d601f19601f820116820180604052508101906107879190611a62565b505050565b60005473ffffffffffffffffffffffffffffffffffffffff163314610833576040517f08c379a000000000000000000000000000000000000000000000000000000000815260206004820152602160248201527f4f6e6c7920746865206f776e65722063616e20646f207468697320616374696f60448201527f6e000000000000000000000000000000000000000000000000000000000000006064820152608401610485565b61083f33600d546113ba565b6000600d55565b600754421015801561085a57506008544211155b6108c0576040517f08c379a000000000000000000000000000000000000000000000000000000000815260206004820152601f60248201527f5262636350726573616c653a204e6f742070726573616c6520706572696f64006044820152606401610485565b6000341161092a576040517f08c379a000000000000000000000000000000000000000000000000000000000815260206004820152601760248201527f496e73756666696369656e7420424e4220616d6f756e740000000000000000006044820152606401610485565b33600090815260036020908152604080832054600654600490935290832054349392670de0b6b3a7640000916109609190611a84565b61096a9190611a9b565b6109749190611a4f565b90506000670de0b6b3a76400006006548461098f9190611a84565b6109999190611a9b565b6109a39083611a4f565b9050600c5481101580156109b95750600b548111155b610a45576040517f08c379a000000000000000000000000000000000000000000000000000000000815260206004820152603260248201527f5262636350726573616c653a20546865207072696365206973206e6f7420616c60448201527f6c6f77656420666f722070726573616c652e00000000000000000000000000006064820152608401610485565b6000670de0b6b3a7640000600954610a5d9190611a84565b600654610a6a9086611a84565b610a749190611a9b565b9050610a8284600083611490565b50505050565b60005473ffffffffffffffffffffffffffffffffffffffff163314610b2f576040517f08c379a000000000000000000000000000000000000000000000000000000000815260206004820152602160248201527f4f6e6c7920746865206f776e65722063616e20646f207468697320616374696f60448201527f6e000000000000000000000000000000000000000000000000000000000000006064820152608401610485565b600254600e546040517fa9059cbb000000000000000000000000000000000000000000000000000000008152336004820152602481019190915273ffffffffffffffffffffffffffffffffffffffff9091169063a9059cbb906044016020604051808303816000875af1158015610baa573d6000803e3d6000fd5b505050506040513d601f19601f82011682018060405250810190610bce9190611a62565b506000600e55565b6007544210158015610bea57506008544211155b610c50576040517f08c379a000000000000000000000000000000000000000000000000000000000815260206004820152601f60248201527f5262636350726573616c653a204e6f742070726573616c6520706572696f64006044820152606401610485565b60008111610cba576040517f08c379a000000000000000000000000000000000000000000000000000000000815260206004820152601860248201527f496e73756666696369656e74205553445420616d6f756e7400000000000000006044820152606401610485565b336000908152600360209081526040808320546006546004909352908320549091670de0b6b3a764000091610cef9190611a84565b610cf99190611a9b565b610d039190611a4f565b90506000610d118383611a4f565b9050600c548110158015610d275750600b548111155b610db3576040517f08c379a000000000000000000000000000000000000000000000000000000000815260206004820152603260248201527f5262636350726573616c653a20546865207072696365206973206e6f7420616c60448201527f6c6f77656420666f722070726573616c652e00000000000000000000000000006064820152608401610485565b600060095484610dc39190611a9b565b600254909150610deb9073ffffffffffffffffffffffffffffffffffffffff163330876116c1565b610a8260008583611490565b6000670de0b6b3a7640000600f54610e0f9190611a84565b905090565b60005473ffffffffffffffffffffffffffffffffffffffff163314610ebb576040517f08c379a000000000000000000000000000000000000000000000000000000000815260206004820152602160248201527f4f6e6c7920746865206f776e65722063616e20646f207468697320616374696f60448201527f6e000000000000000000000000000000000000000000000000000000000000006064820152608401610485565b600791909155600855565b60005473ffffffffffffffffffffffffffffffffffffffff163314610f6d576040517f08c379a000000000000000000000000000000000000000000000000000000000815260206004820152602160248201527f4f6e6c7920746865206f776e65722063616e20646f207468697320616374696f60448201527f6e000000000000000000000000000000000000000000000000000000000000006064820152608401610485565b610f7a620f424082611a84565b60065550565b6008544211610feb576040517f08c379a000000000000000000000000000000000000000000000000000000000815260206004820152601860248201527f50726573616c65206973206e6f742066696e69736865642e00000000000000006044820152606401610485565b336000908152600360209081526040808320546006546004909352908320549091670de0b6b3a7640000916110209190611a84565b61102a9190611a9b565b6110349190611a4f565b9050600081116110a0576040517f08c379a000000000000000000000000000000000000000000000000000000000815260206004820152601f60248201527f596f7520646f6e74206861766520616e79205242434320746f20636c61696d006044820152606401610485565b33600090815260056020526040908190205460015491517f70a082310000000000000000000000000000000000000000000000000000000081523060048201529091829173ffffffffffffffffffffffffffffffffffffffff909116906370a0823190602401602060405180830381865afa158015611123573d6000803e3d6000fd5b505050506040513d601f19601f8201168201806040525081019061114791906119f4565b10156111d5576040517f08c379a000000000000000000000000000000000000000000000000000000000815260206004820152603060248201527f546865205242434320616d6f756e74206f6e2074686520636f6e74726163742060448201527f697320696e73756666696369656e742e000000000000000000000000000000006064820152608401610485565b336000818152600460209081526040808320839055600390915281205560015473ffffffffffffffffffffffffffffffffffffffff169063a9059cbb90611224670de0b6b3a764000085611a84565b6040517fffffffff0000000000000000000000000000000000000000000000000000000060e085901b16815273ffffffffffffffffffffffffffffffffffffffff909216600483015260248201526044016020604051808303816000875af1158015611294573d6000803e3d6000fd5b505050506040513d601f19601f820116820180604052508101906112b89190611a62565b5080601060008282546112cb9190611a4f565b90915550505050565b60006007544211611341576040517f08c379a000000000000000000000000000000000000000000000000000000000815260206004820152601760248201527f50726573616c65206973206e6f7420737461727465642e0000000000000000006044820152606401610485565b60085442106113ac576040517f08c379a000000000000000000000000000000000000000000000000000000000815260206004820152601c60248201527f50726573616c652077617320616c726561792066696e69736865642e000000006044820152606401610485565b42600854610e0f9190611a3c565b804710156113f6576040517fcd786059000000000000000000000000000000000000000000000000000000008152306004820152602401610485565b60008273ffffffffffffffffffffffffffffffffffffffff168260405160006040518083038185875af1925050503d8060008114611450576040519150601f19603f3d011682016040523d82523d6000602084013e611455565b606091505b5050905080610787576040517f1425ea4200000000000000000000000000000000000000000000000000000000815260040160405180910390fd5b600f5461149d9082611a4f565b6001546040517f70a0823100000000000000000000000000000000000000000000000000000000815230600482015273ffffffffffffffffffffffffffffffffffffffff909116906370a0823190602401602060405180830381865afa15801561150b573d6000803e3d6000fd5b505050506040513d601f19601f8201168201806040525081019061152f91906119f4565b10156115bd576040517f08c379a000000000000000000000000000000000000000000000000000000000815260206004820152603060248201527f546865205262636320616d6f756e74206f6e2074686520636f6e74726163742060448201527f697320696e73756666696369656e742e000000000000000000000000000000006064820152608401610485565b60095460408051858152602081018590528082019290925260608201839052517f3a7cd7bc16654c80298739e4072ea71ed53e4cca3e8c0162736e5d600d3706a99181900360800190a180600f60008282546116199190611a4f565b9091555050336000908152600460205260408120805485929061163d908490611a4f565b90915550503360009081526003602052604081208054849290611661908490611a4f565b90915550503360009081526005602052604081208054839290611685908490611a4f565b9250508190555082600d600082825461169e9190611a4f565b9250508190555081600e60008282546116b79190611a4f565b9091555050505050565b6040805173ffffffffffffffffffffffffffffffffffffffff8581166024830152848116604483015260648083018590528351808403909101815260849092019092526020810180517bffffffffffffffffffffffffffffffffffffffffffffffffffffffff167f23b872dd00000000000000000000000000000000000000000000000000000000179052610a8291869190600090611762908416836117d6565b905080516000141580156117875750808060200190518101906117859190611a62565b155b15610787576040517f5274afe700000000000000000000000000000000000000000000000000000000815273ffffffffffffffffffffffffffffffffffffffff84166004820152602401610485565b60606117e4838360006117ed565b90505b92915050565b60608147101561182b576040517fcd786059000000000000000000000000000000000000000000000000000000008152306004820152602401610485565b6000808573ffffffffffffffffffffffffffffffffffffffff1684866040516118549190611ad6565b60006040518083038185875af1925050503d8060008114611891576040519150601f19603f3d011682016040523d82523d6000602084013e611896565b606091505b50915091506118a68683836118b2565b925050505b9392505050565b6060826118c7576118c282611941565b6118ab565b81511580156118eb575073ffffffffffffffffffffffffffffffffffffffff84163b155b1561193a576040517f9996b31500000000000000000000000000000000000000000000000000000000815273ffffffffffffffffffffffffffffffffffffffff85166004820152602401610485565b50806118ab565b8051156119515780518082602001fd5b6040517f1425ea4200000000000000000000000000000000000000000000000000000000815260040160405180910390fd5b60006020828403121561199557600080fd5b5035919050565b6000602082840312156119ae57600080fd5b813573ffffffffffffffffffffffffffffffffffffffff811681146118ab57600080fd5b600080604083850312156119e557600080fd5b50508035926020909101359150565b600060208284031215611a0657600080fd5b5051919050565b7f4e487b7100000000000000000000000000000000000000000000000000000000600052601160045260246000fd5b818103818111156117e7576117e7611a0d565b808201808211156117e7576117e7611a0d565b600060208284031215611a7457600080fd5b815180151581146118ab57600080fd5b80820281158282048414176117e7576117e7611a0d565b600082611ad1577f4e487b7100000000000000000000000000000000000000000000000000000000600052601260045260246000fd5b500490565b6000825160005b81811015611af75760208186018101518583015201611add565b50600092019182525091905056fea26469706673582212202a39d48fb5716eaad8b5b97544ec142910eae664c0111fdaebf41d059284cd2764736f6c63430008140033",
  "linkReferences": {},
  "deployedLinkReferences": {}
}