{
  "_format": "hh-sol-artifact-1",
  "contractName": "RbccPresale",
  "sourceName": "contracts/RbccPresale.sol",
  "abi": [
    {
      "inputs": [
        {
          "internalType": "address",
          "name": "usdt",
          "type": "address"
        },
        {
          "internalType": "address",
          "name": "token",
          "type": "address"
        }
      ],
      "stateMutability": "nonpayable",
      "type": "constructor"
    },
    {
      "inputs": [
        {
          "internalType": "address",
          "name": "target",
          "type": "address"
        }
      ],
      "name": "AddressEmptyCode",
      "type": "error"
    },
    {
      "inputs": [
        {
          "internalType": "address",
          "name": "account",
          "type": "address"
        }
      ],
      "name": "AddressInsufficientBalance",
      "type": "error"
    },
    {
      "inputs": [],
      "name": "FailedInnerCall",
      "type": "error"
    },
    {
      "inputs": [
        {
          "internalType": "address",
          "name": "token",
          "type": "address"
        }
      ],
      "name": "SafeERC20FailedOperation",
      "type": "error"
    },
    {
      "anonymous": false,
      "inputs": [
        {
          "indexed": false,
          "internalType": "uint256",
          "name": "bnbAmount",
          "type": "uint256"
        },
        {
          "indexed": false,
          "internalType": "uint256",
          "name": "usdtAmount",
          "type": "uint256"
        },
        {
          "indexed": false,
          "internalType": "uint256",
          "name": "price",
          "type": "uint256"
        },
        {
          "indexed": false,
          "internalType": "uint256",
          "name": "rbccAmount",
          "type": "uint256"
        }
      ],
      "name": "SoldRbcc",
      "type": "event"
    },
    {
      "anonymous": false,
      "inputs": [],
      "name": "StateChange",
      "type": "event"
    },
    {
      "inputs": [],
      "name": "_TotalClaimed",
      "outputs": [
        {
          "internalType": "uint256",
          "name": "",
          "type": "uint256"
        }
      ],
      "stateMutability": "view",
      "type": "function"
    },
    {
      "inputs": [],
      "name": "_claim",
      "outputs": [
        {
          "internalType": "bool",
          "name": "",
          "type": "bool"
        }
      ],
      "stateMutability": "view",
      "type": "function"
    },
    {
      "inputs": [
        {
          "internalType": "uint256",
          "name": "_usdtAmount",
          "type": "uint256"
        }
      ],
      "name": "buyTokensWithUSDT",
      "outputs": [],
      "stateMutability": "nonpayable",
      "type": "function"
    },
    {
      "inputs": [],
      "name": "buyWithBNB",
      "outputs": [],
      "stateMutability": "payable",
      "type": "function"
    },
    {
      "inputs": [],
      "name": "claimRbcc",
      "outputs": [],
      "stateMutability": "nonpayable",
      "type": "function"
    },
    {
      "inputs": [
        {
          "internalType": "address",
          "name": "addr",
          "type": "address"
        }
      ],
      "name": "getAddressBought",
      "outputs": [
        {
          "internalType": "uint256",
          "name": "",
          "type": "uint256"
        }
      ],
      "stateMutability": "view",
      "type": "function"
    },
    {
      "inputs": [
        {
          "internalType": "address",
          "name": "addr",
          "type": "address"
        }
      ],
      "name": "getAddressInvestmentBNB",
      "outputs": [
        {
          "internalType": "uint256",
          "name": "",
          "type": "uint256"
        }
      ],
      "stateMutability": "view",
      "type": "function"
    },
    {
      "inputs": [
        {
          "internalType": "address",
          "name": "addr",
          "type": "address"
        }
      ],
      "name": "getAddressInvestmentUSDT",
      "outputs": [
        {
          "internalType": "uint256",
          "name": "",
          "type": "uint256"
        }
      ],
      "stateMutability": "view",
      "type": "function"
    },
    {
      "inputs": [],
      "name": "getBnbPrice",
      "outputs": [
        {
          "internalType": "uint256",
          "name": "",
          "type": "uint256"
        }
      ],
      "stateMutability": "view",
      "type": "function"
    },
    {
      "inputs": [],
      "name": "getMaxPerWallet",
      "outputs": [
        {
          "internalType": "uint256",
          "name": "",
          "type": "uint256"
        }
      ],
      "stateMutability": "view",
      "type": "function"
    },
    {
      "inputs": [],
      "name": "getMinPerWallet",
      "outputs": [
        {
          "internalType": "uint256",
          "name": "",
          "type": "uint256"
        }
      ],
      "stateMutability": "view",
      "type": "function"
    },
    {
      "inputs": [],
      "name": "getRemainingTime",
      "outputs": [
        {
          "internalType": "uint256",
          "name": "",
          "type": "uint256"
        }
      ],
      "stateMutability": "view",
      "type": "function"
    },
    {
      "inputs": [],
      "name": "getTotalBNB",
      "outputs": [
        {
          "internalType": "uint256",
          "name": "",
          "type": "uint256"
        }
      ],
      "stateMutability": "view",
      "type": "function"
    },
    {
      "inputs": [],
      "name": "getTotalSold",
      "outputs": [
        {
          "internalType": "uint256",
          "name": "",
          "type": "uint256"
        }
      ],
      "stateMutability": "view",
      "type": "function"
    },
    {
      "inputs": [],
      "name": "getTotalUSDT",
      "outputs": [
        {
          "internalType": "uint256",
          "name": "",
          "type": "uint256"
        }
      ],
      "stateMutability": "view",
      "type": "function"
    },
    {
      "inputs": [],
      "name": "getTotalValue",
      "outputs": [
        {
          "internalType": "uint256",
          "name": "",
          "type": "uint256"
        }
      ],
      "stateMutability": "view",
      "type": "function"
    },
    {
      "inputs": [],
      "name": "getpricePerToken",
      "outputs": [
        {
          "internalType": "uint256",
          "name": "",
          "type": "uint256"
        }
      ],
      "stateMutability": "view",
      "type": "function"
    },
    {
      "inputs": [
        {
          "internalType": "uint256",
          "name": "price",
          "type": "uint256"
        }
      ],
      "name": "setBnbPrice",
      "outputs": [],
      "stateMutability": "nonpayable",
      "type": "function"
    },
    {
      "inputs": [
        {
          "internalType": "uint256",
          "name": "startTime",
          "type": "uint256"
        },
        {
          "internalType": "uint256",
          "name": "endTime",
          "type": "uint256"
        }
      ],
      "name": "setTime",
      "outputs": [],
      "stateMutability": "nonpayable",
      "type": "function"
    },
    {
      "inputs": [],
      "name": "withdrawBNB",
      "outputs": [],
      "stateMutability": "nonpayable",
      "type": "function"
    },
    {
      "inputs": [
        {
          "internalType": "uint256",
          "name": "_amount",
          "type": "uint256"
        }
      ],
      "name": "withdrawRemainingRBCC",
      "outputs": [],
      "stateMutability": "nonpayable",
      "type": "function"
    },
    {
      "inputs": [],
      "name": "withdrawUSDT",
      "outputs": [],
      "stateMutability": "nonpayable",
      "type": "function"
    }
  ],
  "bytecode": "0x60806040526010805460ff191690553480156200001b57600080fd5b5060405162001d4b38038062001d4b8339810160408190526200003e9162000170565b33620000905760405162461bcd60e51b815260206004820152601c60248201527f4465706c6f792066726f6d20746865207a65726f206164647265737300000000604482015260640160405180910390fd5b600280546001600160a01b038085166001600160a01b03199283161790925560018054928416928216929092179091556000805490911633179055620000dc620f4240610258620001a8565b600655636659bbc0600755636659e1406008556101906009556200010d670de0b6b3a7640000633b9aca00620001a8565b600a5562000121620f4240612710620001a8565b600b5562000134620f42406032620001a8565b600c5550506000600f8190556011819055600d819055600e55620001d4565b80516001600160a01b03811681146200016b57600080fd5b919050565b600080604083850312156200018457600080fd5b6200018f8362000153565b91506200019f6020840162000153565b90509250929050565b8082028115828204841417620001ce57634e487b7160e01b600052601160045260246000fd5b92915050565b611b6780620001e46000396000f3fe6080604052600436106101755760003560e01c80639d7b8e68116100cb578063e2f8db751161007f578063efb98bcf11610059578063efb98bcf146103d9578063efd6684c146103ee578063fb730a7d1461040357600080fd5b8063e2f8db751461036b578063e7be285714610380578063e7c158311461039657600080fd5b8063bcff32eb116100b0578063bcff32eb14610321578063caa648b414610341578063d1f2ed441461035657600080fd5b80639d7b8e68146102ec578063a0355eca1461030157600080fd5b806333efe9531161012d5780635ef8086f116101075780635ef8086f146102745780636bbc42911461029457806389f6fcd5146102a957600080fd5b806333efe95314610220578063362e496b1461024a5780635a6ca75b1461025f57600080fd5b80630df1d7d01161015e5780630df1d7d0146101c05780631d111d131461020357806320f1fc611461021857600080fd5b8063050dc4361461017a57806308760b0d1461019c575b600080fd5b34801561018657600080fd5b5061019a6101953660046119af565b610418565b005b3480156101a857600080fd5b506006545b6040519081526020015b60405180910390f35b3480156101cc57600080fd5b506101ad6101db3660046119c8565b73ffffffffffffffffffffffffffffffffffffffff1660009081526003602052604090205490565b34801561020f57600080fd5b5061019a6107c2565b61019a610877565b34801561022c57600080fd5b5060105461023a9060ff1681565b60405190151581526020016101b7565b34801561025657600080fd5b5061019a610ab9565b34801561026b57600080fd5b50600d546101ad565b34801561028057600080fd5b5061019a61028f3660046119af565b610c02565b3480156102a057600080fd5b50600b546101ad565b3480156102b557600080fd5b506101ad6102c43660046119c8565b73ffffffffffffffffffffffffffffffffffffffff1660009081526004602052604090205490565b3480156102f857600080fd5b506101ad610e23565b34801561030d57600080fd5b5061019a61031c3660046119fe565b610e40565b34801561032d57600080fd5b5061019a61033c3660046119af565b610ef2565b34801561034d57600080fd5b50600a546101ad565b34801561036257600080fd5b5061019a610fac565b34801561037757600080fd5b50600c546101ad565b34801561038c57600080fd5b506101ad60115481565b3480156103a257600080fd5b506101ad6103b13660046119c8565b73ffffffffffffffffffffffffffffffffffffffff1660009081526005602052604090205490565b3480156103e557600080fd5b506101ad611300565b3480156103fa57600080fd5b506009546101ad565b34801561040f57600080fd5b50600e546101ad565b60005473ffffffffffffffffffffffffffffffffffffffff1633146104c4576040517f08c379a000000000000000000000000000000000000000000000000000000000815260206004820152602160248201527f4f6e6c7920746865206f776e65722063616e20646f207468697320616374696f60448201527f6e0000000000000000000000000000000000000000000000000000000000000060648201526084015b60405180910390fd5b6001546040517f70a08231000000000000000000000000000000000000000000000000000000008152306004820152829173ffffffffffffffffffffffffffffffffffffffff16906370a0823190602401602060405180830381865afa158015610532573d6000803e3d6000fd5b505050506040513d601f19601f820116820180604052508101906105569190611a20565b10156105e4576040517f08c379a000000000000000000000000000000000000000000000000000000000815260206004820152602c60248201527f5242434320616d6f756e742061736b6564206578636565642074686520636f6e60448201527f747261637420616d6f756e74000000000000000000000000000000000000000060648201526084016104bb565b6000601154600f546105f69190611a68565b90506106028183611a7b565b6001546040517f70a0823100000000000000000000000000000000000000000000000000000000815230600482015273ffffffffffffffffffffffffffffffffffffffff909116906370a0823190602401602060405180830381865afa158015610670573d6000803e3d6000fd5b505050506040513d601f19601f820116820180604052508101906106949190611a20565b1015610722576040517f08c379a000000000000000000000000000000000000000000000000000000000815260206004820152602d60248201527f5242434320616d6f756e742061736b6564206578636565642074686520616d6f60448201527f756e7420666f722075736572730000000000000000000000000000000000000060648201526084016104bb565b6001546040517fa9059cbb0000000000000000000000000000000000000000000000000000000081523360048201526024810184905273ffffffffffffffffffffffffffffffffffffffff9091169063a9059cbb906044016020604051808303816000875af1158015610799573d6000803e3d6000fd5b505050506040513d601f19601f820116820180604052508101906107bd9190611a8e565b505050565b60005473ffffffffffffffffffffffffffffffffffffffff163314610869576040517f08c379a000000000000000000000000000000000000000000000000000000000815260206004820152602160248201527f4f6e6c7920746865206f776e65722063616e20646f207468697320616374696f60448201527f6e0000000000000000000000000000000000000000000000000000000000000060648201526084016104bb565b61087533600d546113e6565b565b600754421015801561088b57506008544211155b6108f1576040517f08c379a000000000000000000000000000000000000000000000000000000000815260206004820152601f60248201527f5262636350726573616c653a204e6f742070726573616c6520706572696f640060448201526064016104bb565b6000341161095b576040517f08c379a000000000000000000000000000000000000000000000000000000000815260206004820152601760248201527f496e73756666696369656e7420424e4220616d6f756e7400000000000000000060448201526064016104bb565b33600090815260036020908152604080832054600654600490935290832054349392670de0b6b3a7640000916109919190611ab0565b61099b9190611ac7565b6109a59190611a7b565b90506000670de0b6b3a7640000600654846109c09190611ab0565b6109ca9190611ac7565b6109d49083611a7b565b9050600c5481101580156109ea5750600b548111155b610a76576040517f08c379a000000000000000000000000000000000000000000000000000000000815260206004820152603260248201527f5262636350726573616c653a20546865207072696365206973206e6f7420616c60448201527f6c6f77656420666f722070726573616c652e000000000000000000000000000060648201526084016104bb565b6000670de0b6b3a7640000600954610a8e9190611ab0565b600654610a9b9086611ab0565b610aa59190611ac7565b9050610ab3846000836114bc565b50505050565b60005473ffffffffffffffffffffffffffffffffffffffff163314610b60576040517f08c379a000000000000000000000000000000000000000000000000000000000815260206004820152602160248201527f4f6e6c7920746865206f776e65722063616e20646f207468697320616374696f60448201527f6e0000000000000000000000000000000000000000000000000000000000000060648201526084016104bb565b600254600e546040517fa9059cbb000000000000000000000000000000000000000000000000000000008152336004820152602481019190915273ffffffffffffffffffffffffffffffffffffffff9091169063a9059cbb906044016020604051808303816000875af1158015610bdb573d6000803e3d6000fd5b505050506040513d601f19601f82011682018060405250810190610bff9190611a8e565b50565b6007544210158015610c1657506008544211155b610c7c576040517f08c379a000000000000000000000000000000000000000000000000000000000815260206004820152601f60248201527f5262636350726573616c653a204e6f742070726573616c6520706572696f640060448201526064016104bb565b60008111610ce6576040517f08c379a000000000000000000000000000000000000000000000000000000000815260206004820152601860248201527f496e73756666696369656e74205553445420616d6f756e74000000000000000060448201526064016104bb565b336000908152600360209081526040808320546006546004909352908320549091670de0b6b3a764000091610d1b9190611ab0565b610d259190611ac7565b610d2f9190611a7b565b90506000610d3d8383611a7b565b9050600c548110158015610d535750600b548111155b610ddf576040517f08c379a000000000000000000000000000000000000000000000000000000000815260206004820152603260248201527f5262636350726573616c653a20546865207072696365206973206e6f7420616c60448201527f6c6f77656420666f722070726573616c652e000000000000000000000000000060648201526084016104bb565b600060095484610def9190611ac7565b600254909150610e179073ffffffffffffffffffffffffffffffffffffffff163330876116ed565b610ab3600085836114bc565b6000670de0b6b3a7640000600f54610e3b9190611ab0565b905090565b60005473ffffffffffffffffffffffffffffffffffffffff163314610ee7576040517f08c379a000000000000000000000000000000000000000000000000000000000815260206004820152602160248201527f4f6e6c7920746865206f776e65722063616e20646f207468697320616374696f60448201527f6e0000000000000000000000000000000000000000000000000000000000000060648201526084016104bb565b600791909155600855565b60005473ffffffffffffffffffffffffffffffffffffffff163314610f99576040517f08c379a000000000000000000000000000000000000000000000000000000000815260206004820152602160248201527f4f6e6c7920746865206f776e65722063616e20646f207468697320616374696f60448201527f6e0000000000000000000000000000000000000000000000000000000000000060648201526084016104bb565b610fa6620f424082611ab0565b60065550565b6008544211611017576040517f08c379a000000000000000000000000000000000000000000000000000000000815260206004820152601860248201527f50726573616c65206973206e6f742066696e69736865642e000000000000000060448201526064016104bb565b336000908152600360209081526040808320546006546004909352908320549091670de0b6b3a76400009161104c9190611ab0565b6110569190611ac7565b6110609190611a7b565b9050600081116110cc576040517f08c379a000000000000000000000000000000000000000000000000000000000815260206004820152601f60248201527f596f7520646f6e74206861766520616e79205242434320746f20636c61696d0060448201526064016104bb565b33600090815260056020526040908190205460015491517f70a082310000000000000000000000000000000000000000000000000000000081523060048201529091829173ffffffffffffffffffffffffffffffffffffffff909116906370a0823190602401602060405180830381865afa15801561114f573d6000803e3d6000fd5b505050506040513d601f19601f820116820180604052508101906111739190611a20565b1015611201576040517f08c379a000000000000000000000000000000000000000000000000000000000815260206004820152603060248201527f546865205242434320616d6f756e74206f6e2074686520636f6e74726163742060448201527f697320696e73756666696369656e742e0000000000000000000000000000000060648201526084016104bb565b336000818152600460209081526040808320839055600390915281205560015473ffffffffffffffffffffffffffffffffffffffff169063a9059cbb90611250670de0b6b3a764000085611ab0565b6040517fffffffff0000000000000000000000000000000000000000000000000000000060e085901b16815273ffffffffffffffffffffffffffffffffffffffff909216600483015260248201526044016020604051808303816000875af11580156112c0573d6000803e3d6000fd5b505050506040513d601f19601f820116820180604052508101906112e49190611a8e565b5080601160008282546112f79190611a7b565b90915550505050565b6000600754421161136d576040517f08c379a000000000000000000000000000000000000000000000000000000000815260206004820152601760248201527f50726573616c65206973206e6f7420737461727465642e00000000000000000060448201526064016104bb565b60085442106113d8576040517f08c379a000000000000000000000000000000000000000000000000000000000815260206004820152601c60248201527f50726573616c652077617320616c726561792066696e69736865642e0000000060448201526064016104bb565b42600854610e3b9190611a68565b80471015611422576040517fcd7860590000000000000000000000000000000000000000000000000000000081523060048201526024016104bb565b60008273ffffffffffffffffffffffffffffffffffffffff168260405160006040518083038185875af1925050503d806000811461147c576040519150601f19603f3d011682016040523d82523d6000602084013e611481565b606091505b50509050806107bd576040517f1425ea4200000000000000000000000000000000000000000000000000000000815260040160405180910390fd5b600f546114c99082611a7b565b6001546040517f70a0823100000000000000000000000000000000000000000000000000000000815230600482015273ffffffffffffffffffffffffffffffffffffffff909116906370a0823190602401602060405180830381865afa158015611537573d6000803e3d6000fd5b505050506040513d601f19601f8201168201806040525081019061155b9190611a20565b10156115e9576040517f08c379a000000000000000000000000000000000000000000000000000000000815260206004820152603060248201527f546865205262636320616d6f756e74206f6e2074686520636f6e74726163742060448201527f697320696e73756666696369656e742e0000000000000000000000000000000060648201526084016104bb565b60095460408051858152602081018590528082019290925260608201839052517f3a7cd7bc16654c80298739e4072ea71ed53e4cca3e8c0162736e5d600d3706a99181900360800190a180600f60008282546116459190611a7b565b90915550503360009081526004602052604081208054859290611669908490611a7b565b9091555050336000908152600360205260408120805484929061168d908490611a7b565b909155505033600090815260056020526040812080548392906116b1908490611a7b565b9250508190555082600d60008282546116ca9190611a7b565b9250508190555081600e60008282546116e39190611a7b565b9091555050505050565b6040805173ffffffffffffffffffffffffffffffffffffffff8581166024830152848116604483015260648083018590528351808403909101815260849092019092526020810180517bffffffffffffffffffffffffffffffffffffffffffffffffffffffff167f23b872dd00000000000000000000000000000000000000000000000000000000179052610ab39186919060009061178e90841683611802565b905080516000141580156117b35750808060200190518101906117b19190611a8e565b155b156107bd576040517f5274afe700000000000000000000000000000000000000000000000000000000815273ffffffffffffffffffffffffffffffffffffffff841660048201526024016104bb565b606061181083836000611819565b90505b92915050565b606081471015611857576040517fcd7860590000000000000000000000000000000000000000000000000000000081523060048201526024016104bb565b6000808573ffffffffffffffffffffffffffffffffffffffff1684866040516118809190611b02565b60006040518083038185875af1925050503d80600081146118bd576040519150601f19603f3d011682016040523d82523d6000602084013e6118c2565b606091505b50915091506118d28683836118de565b925050505b9392505050565b6060826118f3576118ee8261196d565b6118d7565b8151158015611917575073ffffffffffffffffffffffffffffffffffffffff84163b155b15611966576040517f9996b31500000000000000000000000000000000000000000000000000000000815273ffffffffffffffffffffffffffffffffffffffff851660048201526024016104bb565b50806118d7565b80511561197d5780518082602001fd5b6040517f1425ea4200000000000000000000000000000000000000000000000000000000815260040160405180910390fd5b6000602082840312156119c157600080fd5b5035919050565b6000602082840312156119da57600080fd5b813573ffffffffffffffffffffffffffffffffffffffff811681146118d757600080fd5b60008060408385031215611a1157600080fd5b50508035926020909101359150565b600060208284031215611a3257600080fd5b5051919050565b7f4e487b7100000000000000000000000000000000000000000000000000000000600052601160045260246000fd5b8181038181111561181357611813611a39565b8082018082111561181357611813611a39565b600060208284031215611aa057600080fd5b815180151581146118d757600080fd5b808202811582820484141761181357611813611a39565b600082611afd577f4e487b7100000000000000000000000000000000000000000000000000000000600052601260045260246000fd5b500490565b6000825160005b81811015611b235760208186018101518583015201611b09565b50600092019182525091905056fea2646970667358221220f5d30fcb704f1b0ce20fe096c401d93f665c29e637c7ace2bb0aa7d1b7bda2f764736f6c63430008140033",
  "linkReferences": {},
  "deployedLinkReferences": {}
}